:020000040800F2
:10000000480B0020192A0008AD040008AF040008BE
:10001000B3040008B7040008BB0400080000000097
:10002000000000000000000000000000C104000803
:10003000BF04000800000000C3040008C504000855
:10004000C7040008C9040008CB040008CD04000858
:10005000CF040008D1040008D3040008D504000828
:10006000D70400080F050008AB050008AD0500081F
:10007000AF050008B1050008B3050008B505000884
:10008000B7050008B9050008BB050008BD05000854
:10009000BF050008C1050008C3050008C505000824
:1000A000EF050008F1050008F3050008F505000854
:1000B000F705000817060008190600081B060008C7
:1000C0001D0600081F060008210600082306000878
:1000D0002506000827060008290600082B06000848
:1000E0002D0600082F060008310600083306000818
:1000F0003506000837060008390600083B060008E8
:100100003D0600083F0600084106000843060008B7
:100110004506000847060008490600084B06000887
:100120004D0600084F060008510600085306000857
:1001300000F002F800F05EF80AA090E8000C82449B
:100140008344AAF10107DA4501D100F053F8AFF278
:10015000090EBAE80F0013F0010F18BFFB1A43F0A5
:100160000103184704740700247407000A444FF081
:10017000000C10F8013B13F0070408BF10F8014B06
:100180001D1108BF10F8015B641E05D010F8016B4B
:10019000641E01F8016BF9D113F0080F1EBF10F8AF
:1001A000014BAD1C0C1B09D16D1E58BF01F801CBD2
:1001B000FAD505E014F8016B01F8016B6D1EF9D555
:1001C0009142D6D37047000000230024002500266A
:1001D000103A28BF78C1FBD8520728BF30C148BFAA
:1001E0000B6070471FB5AFF3008004F013FE1FBD16
:1001F00010B510BD04F04EFE1146FFF7F3FF00F0FE
:10020000FDF804F06CFEFFF7F3FF04F06FFE000052
:1002100008B54FF4C06003F098F917208DF800007E
:1002200000208DF801008DF8020001208DF80300F8
:10023000684603F090F90621012003F017F94020E9
:1002400093490860002008710C20487101208871D2
:10025000084602F003FC4FF4E06003F076F91C203E
:100260008DF8000000208DF801008DF802000120BB
:100270008DF80300684603F06EF94FF4C06003F098
:1002800064F909208DF8000001208DF801008DF837
:1002900002008DF80300684603F05DF94FF4A0609A
:1002A00003F053F908208DF8000002208DF80100BA
:1002B0008DF8020001208DF80300684603F04BF929
:1002C00008BD00B597B002200190002002900520E3
:1002D000039000200490059006904FF08050079006
:1002E00000200890099008200A9010200B90002010
:1002F0000C900D900E900F904FF4805010900020B5
:1003000011901290149001A81590169008A802F070
:100310008AFC0121002002F0F3FD17B000BD1CB5DE
:100320000221042003F0A2F80321042003F09EF828
:10033000082002F020FC042002F01DFC00208DF8B3
:10034000040008208DF805000C20009001208DF895
:100350000600684602F082FB1CBD08B501217D2025
:1003600003F00CFC4FF44070ADF8000003208DF852
:10037000020010208DF803006946464802F078FF1D
:100380000F20ADF8000003208DF8020010208DF83A
:1003900003006946404802F06BFF0C20ADF80000F6
:1003A00003208DF8020004208DF8030069463A48C6
:1003B00002F05EFF08BD704710B53848006840F095
:1003C000010036490860084640683549084033490D
:1003D00048600846006833490840304908600846CC
:1003E000006820F4802008600846406820F4FE0081
:1003F000486000208860FFF7DEFF10BD10B5FFF7F2
:10040000DBFF0121084603F0B9FB482001F069F841
:100410000121080203F0A5FBFFF79FFFFFF77FFF15
:1004200000F0B2FEFFF74DFF00F0ABF9FFF7F0FE72
:100430004FF00851086804F0D9FC01F07EFC01E09F
:1004400002F0D5F9FCE710B50121084603F0A3FB43
:100450004FF0804003F092FD40F6B830124988809A
:1004600048F69F4008800020C88048804FF08040B8
:1004700003F0EFFD0121880704F0E8FA012211469C
:10048000900704F05EF80121880704F03FF810BDE2
:1004900004000020000C0140001801400010024040
:1004A0000000FFF8FFFFF6FEDC010020704700BFF0
:1004B000FEE700BFFEE700BFFEE700BFFEE77047B4
:1004C0007047704770477047704770477047704774
:1004D00070477047704710B5042002F03BFBA8B18D
:1004E0004FF4C03002F040F9042002F033FB68B151
:1004F00000BF042002F02EFB0028FAD0042002F0F6
:100500003AFB02F036F901205249086010BD10B5DF
:10051000082002F01FFB002846D04FF4C03002F044
:1005200023F9082002F016FB00283DD000BF082068
:1005300002F010FB0028FAD0082002F01CFB46480D
:100540000068401C44490860086800EBD0714910FD
:10055000A0EB4101012922D1084603F01CFB4FF01A
:10056000804003F00BFD4FF47A703C49888048F6D8
:100570009F4008800020C88048804FF0804003F0F2
:1005800068FD0121880704F061FA012211469007F5
:1005900003F0D7FF0121880703F0B8FF04E0002132
:1005A0004FF0804003F0B2FF10BD704770477047B6
:1005B0007047704770477047704770477047704783
:1005C0007047704710B5402002F0C4FA70B1202186
:1005D000234802F0F6FE01202249087422490870DF
:1005E000402002F0C8FA01201A49086010BD704787
:1005F00070477047704710B50121880704F029FA49
:1006000040B10121880704F035FA02F0B2F8012068
:100610001049086010BD70477047704770477047B9
:100620007047704770477047704770477047704712
:100630007047704770477047704770477047704702
:1006400070477047704770477047704770477047F2
:10065000704770475400002014000020DC01002087
:10066000000C0140E801002029000020FD4A108014
:1006700070474FF0C042108070474FF0C043188061
:10068000F84B1980704700B52220FFF7F2FF00BD3C
:1006900000E0401E0028FCD170470146002000BF4A
:1006A00001E0491C401C0A78002AFAD1704708B5BD
:1006B00001217C2003F062FA4CF20370ADF80000D7
:1006C00003208DF8020018208DF803006946E648E3
:1006D00002F0CEFD4FF68070ADF8000003208DF8DB
:1006E000020018208DF803006946E04802F0C0FDC2
:1006F0000220ADF8000003208DF8020010208DF8D4
:1007000003006946DA4802F0B3FD4FF40050ADF83B
:10071000000003208DF8020010208DF803006946C8
:10072000D14802F0A5FD4FF40B60ADF800000320A6
:100730008DF8020018208DF803006946CA4802F0BF
:1007400097FD4FF44070ADF8000003208DF80200D3
:1007500010208DF803006946C64802F089FD032089
:10076000ADF800008DF8020010208DF803006946F6
:10077000BE4802F07DFD4FF40051BB4802F01FFE61
:1007800008BD10B5FFF793FF0221B94802F019FE2A
:10079000B948FFF77DFF0221B54802F010FEB648C8
:1007A000FFF776FF43F20801E320FFF766FF12210F
:1007B000E720FFF762FF41F23121EF20FFF75DFFF5
:1007C0004FF480710120FFF758FF4FF4E0610220E1
:1007D000FFF753FF41F238010320FFF74EFF0021DE
:1007E0000420FFF74AFF40F20E210820FFF745FFE3
:1007F00000210920FFF741FF00210A20FFF73DFFFC
:1008000000210C20FFF739FF00210D20FFF735FFF5
:1008100000210F20FFF731FF00211020FFF72DFFEF
:1008200007211120FFF729FF00211220FFF725FFE4
:1008300000211320FFF721FF9048FFF729FF41F225
:1008400090211020FFF719FF40F221211120FFF71E
:1008500014FF8A48FFF71CFF1A211220FFF70DFF33
:100860008648FFF715FF4FF4B0511320FFF705FF3F
:1008700022212920FFF701FF0A212B20FFF7FDFE8F
:100880007E48FFF705FF00212020FFF7F6FE00213C
:100890002120FFF7F2FE00213020FFF7EEFE40F2AC
:1008A00002313120FFF7E9FE40F202213220FFF74A
:1008B000E4FE40F203113520FFF7DFFE40F60C01A5
:1008C0003620FFF7DAFE40F205513720FFF7D5FE5C
:1008D00040F204513820FFF7D0FE40F20771392072
:1008E000FFF7CBFE40F201313C20FFF7C6FE41F29C
:1008F00008013D20FFF7C1FE00215020FFF7BDFE9B
:10090000EF215120FFF7B9FE00215220FFF7B5FE7D
:1009100040F23F115320FFF7B0FE4FF41C5160200E
:10092000FFF7ABFE01216120FFF7A7FE00216A203F
:10093000FFF7A3FE00218020FFF79FFE002181200A
:10094000FFF79BFE00218220FFF797FE0021832006
:10095000FFF793FE00218420FFF78FFE0021852002
:10096000FFF78BFE10219020FFF787FE4FF4C06148
:100970009220FFF782FE03219320FFF77EFE4FF4C3
:1009800088719520FFF779FE00219720FFF775FE0B
:1009900000219820FFF771FE40F233110720FFF786
:1009A0006CFE10BD3649088070473549891C0880A7
:1009B000704730B504460D4621462020FFF75DFE06
:1009C00029462120FFF759FE30BD2DE9F0430446AA
:1009D0000D4616460027B846B94605F0FF094946B8
:1009E0002046FFF7E6FF00BF27E0FFF74CFE4FF081
:1009F000000812E036F81710012000FA08F0014252
:100A000005D11F48801C0088FFF730FE03E01C481A
:100A10000088FFF72BFE08F10108B8F1100FE9D3A9
:100A2000802011491031086009F1010000F0FF0930
:100A300049462046FFF7BDFF7F1C182FD5D3BDE8E0
:100A4000F08370B504460E461546A5F12000C5B2E8
:100A500005EB45000B4901EB001231462046FFF73C
:100A6000B4FF70BD00000260001401400018014096
:100A700000100140000C0140FFFFAF00FFFF0A0023
:100A800018000020825B0008F0B504460D460026E1
:100A9000002709E02A782146F8B2FFF7D2FF07F1D4
:100AA000100087B26D1C761C287808B1012000E088
:100AB00000200F2E01D2012100E000210842E9D1DF
:100AC000F0BD10B50446F8A12046FFF7DDFF10BDCC
:100AD00030B50546002440F23F110020FFF769FFC2
:100AE000FFF7D1FD00BF03E02846FFF7BFFD641C00
:100AF000B4F5963FF8D38020F149086030BD2DE968
:100B0000F05F04460D4600260027B046B14640F28D
:100B10003F1AB3462846FFF7C0FD8346BBF1C80F16
:100B20000BD951462046FFF744FF2046FFF7C9FF87
:100B3000E4A12046FFF7A8FF3DE040F23F11204628
:100B4000FFF737FF32E0B8F1140F1AD128782028C8
:100B500001D16D1C0EE0002606E02022B9B220462D
:100B6000FFF76FFF103F761C4E45F6D3A9F1010049
:100B70002D1A834404F11800C4B240F23F1A4FF01A
:100B800000082A7851462046FFF75BFF08F101086C
:100B9000AAF110001FFA80FA6D1C09F101092878EA
:100BA000202803D14FF00009AAF110075FEA0B00DB
:100BB000ABF1010BC7D1BDE8F09FF0B504460D467F
:100BC00016461F4621465020FFF757FDA019411E2B
:100BD0005120FFF752FD29465220FFF74EFDE8193C
:100BE000411E5320FFF749FD29462046FFF7E1FE4D
:100BF000F0BD00B540F23F13EF2200210846FFF799
:100C0000DCFF00BD00B50346FFF73DFD1846FFF7CA
:100C10002DFD8020AA49086000BD2DE9F041044661
:100C20000D4616469846002729462046FFF7C1FE86
:100C3000B8F1000F0ED1FFF726FD00BF04E0A74872
:100C40000088FFF713FD7F1CB742F8D380209C4932
:100C500008600EE000270AE0A0480088FFF7D2FFF6
:100C6000681C85B229462046FFF7A3FE7F1CB742C9
:100C7000F2D3BDE8F081F0B504460D4617461E4696
:100C800000233A4629462046FFF7C7FFA81981B23C
:100C900000233A462046FFF7C0FF0123324629468B
:100CA0002046FFF7BAFFE119491EC8B201233246B8
:100CB0002946FFF7B2FFF0BD2DE9F04304460D468B
:100CC00016461F46DDF81C803B4632462946204624
:100CD000FFF773FFFFF7D7FC00BF0DE0B14606E05A
:100CE0004046FFF7C3FCA9F1010000F0FF09B9F18C
:100CF000000FF5DC781E87B2002FEFDC80207049F2
:100D00000860FFF776FFBDE8F0832DE9F043044665
:100D10000D4616460320A0EB46074FF00008B146EB
:100D200070E005EB090291B204EB0802D0B2FFF7C4
:100D300040FE6A480088FFF765FFA5EB090291B203
:100D400004EB0802D0B2FFF734FE64480088FFF7D6
:100D500059FF05EB090291B2A4EB0802D0B2FFF7EC
:100D600028FE5E480088FFF74DFFA5EB090291B20F
:100D7000A4EB0802D0B2FFF71CFE58480088FFF72A
:100D800041FF05EB080291B204EB0902D0B2FFF774
:100D900010FE52480088FFF735FFA5EB080291B21C
:100DA00004EB0902D0B2FFF704FE4C480088FFF7BD
:100DB00029FF05EB080291B2A4EB0902D0B2FFF7BC
:100DC000F8FD46480088FFF71DFFA5EB080291B229
:100DD000A4EB0902D0B2FFF7ECFD40480088FFF712
:100DE00011FF002F04DA062000EB8800074407E01B
:100DF000A8EB09000A2101EB80000744A9F10109D1
:100E000008F10108C8458CD9BDE8F08330B5034628
:100E100000250024FFF737FC00BF14E000240FE09A
:100E2000595D0120A040014205D12C48801C00885A
:100E3000FFF71CFC03E029480088FFF717FC641C3F
:100E4000082CEDD36D1CB5F5DC5FE7D380201C4981
:100E5000086030BD704770477047F0B504460D46D6
:100E600016461F4621462020FFF707FC2946212071
:100E7000FFF703FC21465020FFF7FFFB29465220D5
:100E8000FFF7FBFB31465120FFF7F7FB39465320B4
:100E9000FFF7F3FBFFF7F7FBF0BD0146002901DA8E
:100EA000484270470846FCE72020202020202020D0
:100EB00020202020202020202020202000000000B2
:100EC00010140140202020537472696E6720746FE3
:100ED0006F206C6F6E67202000000000180000205B
:100EE000A74A108070474FF0C0431880A44B198068
:100EF0007047A34A108070474FF0C042108070477F
:100F000070B504460D46164641F218010320FFF75E
:100F1000EAFF21462020FFF7E6FF29462120FFF7C0
:100F2000E2FF2220FFF7E8FF3046FFF7D9FF70BD50
:100F30002DE9F04704460D4616461F46B44208D137
:100F4000BD4206D18F48028829462046FFF7D8FFC8
:100F500047E0301B791B01D40B4600E04B420028D0
:100F600001DB024600E0424293421DDDBD4205D94D
:100F7000AA463D465746A24634465646A94610E084
:100F8000A9EB0500311B4843791BB0FBF1F000EBE6
:100F900004087C48028849464046FFF7B1FF09F142
:100FA0000109B945ECD31CE0B44205D9AA463D4637
:100FB0005746A24634465646A04610E0A8EB040029
:100FC000791B4843311BB0FBF1F000EB05096D487C
:100FD000028849464046FFF793FF08F10108B045F3
:100FE000ECD9BDE8F0872DE9F04304460D461646DE
:100FF0000027B0467000C0F1030954E0E91BA4EBE0
:101000000800604A1288FFF77BFFE91B04EB080029
:101010005C4A1288FFF774FF05EB0801E01B594A90
:101020001288FFF76DFFE91BA4EB0800554A1288F0
:10103000FFF766FFA5EB0801E01B524A1288FFF795
:101040005FFFE91904EB08004E4A1288FFF758FFCA
:10105000A5EB0801E0194B4A1288FFF751FF05EB99
:101060000801E019474A1288FFF74AFFE919A4EB83
:101070000800444A1288FFF743FF7F1CB9F1000FB4
:1010800003DAB800801D814406E0A7EB0800800069
:101090000A308144A8F1010805EB0801E019394A3A
:1010A0001288FFF72DFF4745A8DDBDE8F08330B576
:1010B00004460D46A4F10C002B4604F10D0229460E
:1010C000FFF736FFA5F10C0105F10D03224620467E
:1010D000FFF72EFF2B480288691C601CFFF710FFEA
:1010E000601E28490A88691CFFF70AFF691E254807
:1010F0000288601CFFF704FF691E601E214A1288E7
:10110000FFF7FEFE062229462046FFF76CFF30BDA2
:1011100030B5054641F218010320FFF7E4FE002137
:101120005020FFF7E0FEEF215120FFF7DCFE002109
:101130005220FFF7D8FE40F23F115320FFF7D3FEB5
:1011400000212020FFF7CFFE00212120FFF7CBFE5A
:101150002220FFF7D1FE002403E02846FFF7C0FE5F
:10116000641CB4F5963FF8D330BD10B54FF6FF7050
:10117000FFF7AEFC01F0ADF901F0C6F900BFFEE7E4
:10118000000002602400002000B587B001210803A0
:1011900002F0F4FC0121042002F0F0FCE020ADF8A4
:1011A000040003208DF8060018208DF8070001A91F
:1011B0002B4802F05DF81020ADF8040003208DF8F4
:1011C000060010208DF8070001A9254802F050F80C
:1011D0001021234802F0F3F80020ADF808004FF486
:1011E0008270ADF80A000020ADF80C000220ADF8C6
:1011F0000E000120ADF810004002ADF812001820DA
:10120000ADF814000020ADF816000720ADF8180066
:1012100002A9144802F042FD0121124802F0D6FD55
:1012200007B000BD10B5044600BF02210D4802F012
:1012300056FE0028F9D021460A4802F0FDFD00BF05
:101240000121084802F04BFE0028F9D0054802F0C1
:10125000F5FD10BD10B504462046FFF7E3FF10BDB5
:101260000008014000300140FB48006820F0800089
:10127000FA49C1F80C0C70470021F94A126822F0B3
:101280002002F64BC3F80C2800BF22E010F0800FBC
:1012900007D0F34A126842F08002F04BC3F80C28E2
:1012A00006E0EF4A126822F08002EC4BC3F80C28EB
:1012B0004206100EEA4A126822F02002E74BC3F8F9
:1012C0000C28E74A126842F02002C3F80C284A1C96
:1012D000D1B20829DADB70470021002000BF18E0F6
:1012E0004204100CDE4A126842F02002DB4BC3F8C5
:1012F0000C28DB4A126822F02002C3F80C28D84AD6
:10130000121F126812F0400F01D0421C90B24A1C0A
:10131000D1B20C29E4DB7047D24A127842434FF035
:10132000E0235A6100229A6101221A6100BF4FF046
:10133000E022116911F0010F02D011F4803FF6D0C4
:1013400000224FF0E0231A619A61704770B5FFF7F1
:101350008BFFD020FFF766FF0320FFF7DDFF0020A3
:10136000FFF778FF044624020020FFF773FF0443D1
:10137000E408BD480460BD48C4609020FFF752FFF8
:101380000320FFF7C9FF0020FFF764FF05462D0289
:101390000020FFF75FFF0543ED08B4488560B448BF
:1013A0000560AD48006840F08000AC49C1F80C0C05
:1013B000AE48806864280FD9AC48C06864280BD94F
:1013C000AA488068B0F57A6F06D2A848C068B0F520
:1013D0007A6F01D2012070BD0020FCE7F0B58BB020
:1013E0000027002600BFFFF7B1FF60B19F4880686B
:1013F00001A921F817009D48C06881B206A820F80D
:101400001710781CC7B2402193480C3801F0BDFF7B
:1014100010F0010F01D10A2FE5DB0A2F5FD100BFC9
:101420000025002418E001A830F8141001AA601C5F
:1014300032F8100081420DDD01A9601C31F8106006
:1014400001A830F81410601C22F8101001A820F830
:1014500014600125601CC4B2781EA042E3DC002D9C
:10146000DED100BF0025002417E006A830F81420C4
:1014700006A9601C31F8100082420CDD601C31F8B6
:10148000106006A830F81420601C21F8102006A86F
:1014900020F814600125601CC4B2781EA042E4DC70
:1014A000002DDFD1BDF80A00BDF80C100844BDF8CE
:1014B0000E100844032190FBF1F06C498860BDF8E0
:1014C0001E10BDF820000144BDF82200084403218D
:1014D00090FBF1F06549C86001200BB0F0BD002021
:1014E000FBE74FF0E021096921F004014FF0E02211
:1014F00011610146C21700EB5272D210594B1A709B
:10150000194609784FF47A7251431A1D11607047D9
:10151000544A121D126842434FF0E0235A610022E0
:101520009A6101221A6100BF4FF0E022116911F0A7
:10153000010F02D011F4803FF6D000224FF0E023DB
:101540001A619A6170472DE9FF5F04460025002665
:101550000027A8460020039081460120029000BF8A
:10156000002042490874FFF739FF002858D002983C
:1015700078B13E4880683D4908600846C0684860C8
:101580000846806885B20846C06886B2002002908E
:1015900046E0022C41D135488068A84202D2781C2E
:1015A000C7B203E008F1010000F0FF082F48C0684F
:1015B000B04204D20398401CC0B2039003E009F18A
:1015C000010000F0FF09294A9268A91A01D40A46CD
:1015D00000E04A42B2F52F7F09DC244AD268B01AF3
:1015E00001D4024600E04242B2F52F7F0EDD00201A
:1015F00081468046074603901C4800681B4985B217
:1016000088600846406886B2C86018E0174880685D
:1016100085B21648C06886B202E0012C00D10EE007
:101620000A20FFF775FF40210B480C3801F0ADFE92
:1016300010F0010F94D00D48007C012890D000BF1D
:101640003220FFF765FF0020084908740A46126837
:10165000A91A0FD40A460EE00C0C0140000001400C
:101660000C0801401C00002044000020E80100207C
:10167000400000204A42C82A08DCFA4A5268B01AE0
:1016800001D4024600E04242C82A01DD022C41DAC0
:10169000F4494869002103F0EFFF30D0F149B1F976
:1016A0001C0004F07DF8EF490190086804F091F8FF
:1016B0000090EC484169009804F090F88346019945
:1016C00003F05CFE824604F03FF8E6490860B1F999
:1016D0001E0004F065F8E3490190486804F079F8C9
:1016E0000090E0488169009804F078F883460199F9
:1016F00003F044FE824604F027F8DA494860D948EE
:101700000068D849886008464068C860012004B075
:10171000BDE8F09FD34A1268A91A01D40A4600E036
:101720004A42B2F5FA7F0BDCCE4A5268B01A01D4B5
:10173000024600E04242B2F5FA7F01DC0020E6E713
:10174000C8494869002103F097FF5DD0C549B1F948
:101750001C0004F025F8C3490190086804F039F82A
:101760000090C0484169009804F038F88346019918
:1017700003F004FE824603F0E7FFBA490860B1F9BE
:101780001E0004F00DF8B7490190486804F021F8F4
:101790000090B4488169009804F020F883460199CC
:1017A00003F0ECFD824603F0CFFFAE494860B1F98B
:1017B0001C0003F0F5FF0190284604F00AF80090A1
:1017C000A8484169009804F009F88346019903F09C
:1017D000D5FD824603F0B8FF85B2A249B1F91E00DB
:1017E00003F0DEFF0190304603F0F3FF00909D48C8
:1017F0008169009803F0F2FF8346019903F0BEFD72
:10180000824603F0A1FF86B2039AA2EB0901B7EB6F
:10181000080001D4034600E04342002901DB0A46E8
:1018200000E04A42934220DD8E4A5268B01A8D4A47
:101830001268A91A01D40B4600E04B42002801DBD4
:10184000024600E04242934207DD86480068A84213
:1018500001D220205BE7102059E782484068B0425F
:1018600001D2802053E7402051E77E4A1268A81A2F
:101870007C4A5268B11A01D40B4600E04B42002862
:1018800001DB024600E04242934207DD75484068B2
:10189000B04201D280203AE7402038E77148006822
:1018A000A84201D2202032E7102030E710B50446CC
:1018B0006C48806890420DD86A488068A04209D37D
:1018C0006848C068984205D86648C068884201D315
:1018D000012010BD0020FCE72DE9F0410446072C53
:1018E00035D2DFE804F004356FF4F3F2F1000120A3
:1018F000FFF729FE054615F0010F02D10020BDE8D3
:10190000F0810A27002620E0032096FBF0F100FB7F
:10191000116000EB800000010A30C5B2052E01DD28
:10192000D82702E0022E00DD712707F15A0083B2AA
:1019300005F13B00C2B239462846FFF7B7FF10B1A8
:10194000701CC0B2DBE7701C86B2092EDCDBF1E153
:101950000220FFF7F8FD054615F0010F2DD00026F7
:1019600011E0701C2A2202EB401083B202EB4610F9
:1019700081B2EF220020FFF799FF10B1701CC0B2B6
:10198000BDE7701C86B2082EEBDB40F23F13282225
:101990004FF496710020FFF789FF08B10920AEE7E8
:1019A00040F23F13EF224FF49671C820FFF77EFFFD
:1019B00008B10A20A3E70020A1E715B105F0F00067
:1019C0009DE7B7E10120FFF7BEFD054615F0010FC9
:1019D00079D0A6231C228E210420FFF767FF08B1CF
:1019E00001208CE7A62354228E213C20FFF75EFFC6
:1019F00008B1022083E7A62378228E216020FFF71A
:101A000055FF08B103207AE7A623A0228E21882063
:101A1000FFF74CFF08B1042071E7A623C4228E21F2
:101A2000AC20FFF743FF08B1052068E7A623EC22AE
:101A30008E21D420FFF73AFF08B106205FE7E623A6
:101A40001C22CE210420FFF731FF08B1072056E702
:101A5000E6235422CE213C20FFF728FF20B10820A6
:101A60004DE70000E8010020E6237822CE21602027
:101A7000FFF71CFF08B1092041E7E623A022CE2191
:101A80008820FFF713FF08B10A2038E7E623C422B5
:101A9000CE21AC20FFF70AFF08B10B202FE7E62389
:101AA000EC22CE21D420FFF701FF08B10C2026E75D
:101AB00040F23F1328224FF496710020FFF7F6FE04
:101AC00030B10D201BE710E021E1C4E08DE00DE016
:101AD00040F23F13EF224FF49671C820FFF7E6FE65
:101AE00008B10E200BE7002009E723E10120FFF7F2
:101AF0002AFD054615F0010F76D06023F02248211B
:101B0000D620FFF7D3FE08B10120F8E6772399220B
:101B100067215720FFF7CAFE08B10220EFE6F7233E
:101B20003822DF210820FFF7C1FE08B10320E6E6D6
:101B3000F7237022DF214020FFF7B8FE08B1042010
:101B4000DDE6F723A822DF217820FFF7AFFE08B1FA
:101B50000520D4E64FF48A73CC22E021B220FFF7AF
:101B6000A5FE08B10620CAE6F823EE22E021D62021
:101B7000FFF79CFE08B10720C1E64FF48A73EE22FE
:101B8000FC21D620FFF792FE08B10820B7E64FF4FB
:101B90009C7334224FF490711C20FFF787FE08B12C
:101BA0000920ACE64FF49C7384224FF490716C20B2
:101BB000FFF77CFE08B10A20A1E64FF49C73D42203
:101BC0004FF49071BC20FFF771FE08B10B2096E630
:101BD0006223D22253211E20FFF768FE10B10C2091
:101BE0008DE601E000208AE600BF0120FFF7ABFC94
:101BF000054615F0010F2DD0002611E0701C2A2299
:101C000002EB401083B202EB461081B2EF220020BB
:101C1000FFF74CFE10B1701CC0B270E6701C86B2AB
:101C2000082EEBDB40F23F1328224FF49671002080
:101C3000FFF73CFE08B1092061E640F23F13EF22B6
:101C40004FF49671C820FFF731FE08B10A2056E61E
:101C5000002054E66EE00120FFF775FC054615F004
:101C6000010F53D0EF233D22D7212520FFF71EFE81
:101C700008B1012043E6EF237522D7215D20FFF74D
:101C800015FE08B102203AE6EC23CB22DA21982097
:101C9000FFF70CFE08B1032031E640F21D13342299
:101CA00040F205111C20FFF701FE08B1042026E6D2
:101CB00040F21D13842240F205116C20FFF7F6FD5F
:101CC00008B105201BE640F21D13D42240F2051195
:101CD000BC20FFF7EBFD08B1062010E640F23F13F1
:101CE00028224FF496710020FFF7E0FD08B107208D
:101CF00005E640F23F13EF224FF49671C820FFF73C
:101D0000D5FD08B10820FAE50020F8E512E0012031
:101D1000FFF719FC054615F0010F0AD0A9239922F7
:101D200097216F20FFF7C2FD08B10120E7E50020F1
:101D3000E5E500BF00BF0020E1E52DE9F04F89B0E7
:101D4000002400BF1F20FF4908804FF6FF70FE49A6
:101D50000880FEF7BDFE4FF47840FA4908804FF640
:101D6000FF70FEF7B5FE14210846FFF7A0F900202A
:101D7000F6490874486117E2F448007C01287ED1D6
:101D8000FFF7E1FB10F0010F0BD0F048806805A9C8
:101D900021F82400ED48C06801EB84014880601CF4
:101DA000C4B2012C06D0022C0DD0032C15D0042C6B
:101DB00008D11CE04FF6FF70FEF78AFE1421DC20EC
:101DC000FFF775F9EEE14FF6FF70FEF781FE4FF475
:101DD00096711420FFF76BF9E4E14FF6FF70FEF700
:101DE00077FE4FF49671DC20FFF761F9DAE1BDF878
:101DF0001410BDF81820881A01D4014600E04142B1
:101E00000F46BDF81620BDF81A10501A01D401462D
:101E100000E0414288467F4308FB08F807EB0800D2
:101E200003F060F9CDE9020103F06AF8CDE90001A1
:101E300003F008F985B2BDF81C10BDF82020881AFF
:101E400001D4014600E041420F46BDF81E20BDF816
:101E50002210501A01D4014600E0414288467F43D7
:101E600008FB08F807EB080003F03CF9CDE9020194
:101E700003F046F8CDE9000103F0E4F800E092E158
:101E800086B2304603F0A5FC8146284603F0A1FC4B
:101E90008246494603F0FEFA0490049803F046FA9D
:101EA000CDE90001AAA00CC8009803F021F90AD3DB
:101EB000049803F03BFACDE90201A7A00CC80298F0
:101EC00003F04EF909D200244FF6FF70FEF700FE32
:101ED00014210846FFF7EBF866E1BDF81410BDF8D1
:101EE0001C20881A01D4014600E041420F46BDF88B
:101EF0001620BDF81E10501A01D4014600E04142E0
:101F000088467F4308FB08F807EB080003F0EAF86F
:101F1000CDE9020102F0F4FFCDE9000103F092F8EF
:101F200085B2BDF81810BDF82020881A01D40146EA
:101F300000E041420F46BDF81A20BDF82210501AA9
:101F400001D4014600E0414288467F4308FB08F87F
:101F500007EB080003F0C6F8CDE9020102F0D0FF5C
:101F6000CDE9000103F06EF886B2304603F031FC93
:101F70008146284603F02DFC8246494603F08AFA42
:101F80000490049803F0D2F9CDE9000170A00CC8C8
:101F9000009803F0ADF80AD3049803F0C7F9CDE92F
:101FA00002016DA00CC8029803F0DAF809D20024EF
:101FB0004FF6FF70FEF78CFD14210846FFF777F807
:101FC000F2E0BDF81810BDF81C20881A01D40146B3
:101FD00000E041420F46BDF81A20BDF81E10501A0D
:101FE00001D4014600E0414288467F4308FB08F8DF
:101FF00007EB080003F076F8CDE9020102F080FF5C
:10200000CDE9000103F01EF885B2BDF81410BDF84B
:102010002020881A01D4014600E041420F46BDF855
:102020001620BDF82210501A01D4014600E04142AA
:1020300088467F4308FB08F807EB080003F052F8D6
:10204000CDE9020102F05CFFCDE9000102F0FAFFE8
:1020500086B2304603F0BDFB8146284603F0B9FB4B
:102060008246494603F016FA0490049803F05EF99C
:10207000CDE9000136A00CC8009803F039F80AD366
:10208000049803F053F9CDE9020133A00CC802987B
:1020900003F066F809D200244FF6FF70FEF718FD32
:1020A00014210846FFF703F87EE0BDF81810BDF8CC
:1020B0001420881A03F074FB81460146284803F077
:1020C000E9F922494861BDF81810BDF814208818B4
:1020D00003F066FB03901D484169039803F07EFB03
:1020E0008346204903F023FC82464FF0804103F0F1
:1020F000D1F9814603F0F0FA00B214498883BDF8A3
:102100001E10BDF81620881A03F04AFB81460146CE
:10211000154803F0BFF90D498861BDF81E10BDF8E0
:102120001620881803F03CFB039008488169039847
:1021300003F054FB83460D4903F0F9FB82464FF050
:10214000804115E02400002026000020E801002046
:10215000666666666666EE3FCDCCCCCCCCCCF03FF6
:10216000000048430000704300008C430000A0437F
:1021700003F090F9814603F0AFFA00B20B49C8832F
:102180001F200B4908804FF6FF70FEF7A1FC09A144
:102190006E20FEF779FC4FF6FF70FEF799FC09B050
:1021A000BDE8F08F00BF00BFE6E50000E8010020B9
:1021B00024000020202020546F7563682053637230
:1021C00065656E2041646A757374204F4B21000071
:1021D0002DE9F05F00250027A846A946AA464FF63C
:1021E000E070FEF775FC00265AE005F17802104613
:1021F00040F23F130021FEF730FE00241BE0610097
:1022000006F1780000EB800001EBC010471C610074
:1022100006F1780000EB800001EBC0192248C05D98
:102220004FEA002B204810F8090040EA0B0B5846F3
:10223000FEF71CFA641CB4F5A07FE0DBC5F1770261
:10224000C5F1770040F23F130021FEF706FE00249F
:102250001DE06000C6F1780101EB810100EBC110C7
:1022600000F101086000C6F1780101EB810100EB8B
:10227000C11A0D4810F808004FEA002B0A4810F860
:102280000A0040EA0B0B5846FEF7F0F9641CB4F55F
:10229000A07FDEDB48F6FF7000F066FA6D1C761C4E
:1022A000782EA2DBBDE8F09F526D000870B51824AF
:1022B00022E0611E01EB8101480040F23F13EF2252
:1022C0000021FEF7CAFD00250CE0012101EB4500CD
:1022D0000B49085C060211F8150006433046FEF76C
:1022E000C5F96D1CC4F1190000EBC00101EB001031
:1022F000B5EBC01FE9D3641E002CDAD170BD00001D
:1023000052C5020810B50446062C63D2DFE804F07B
:10231000620316293C4F4FF480715D4801F051F87B
:102320004FF400715A4801F04AF80121594801F070
:1023300046F80221574801F042F85EE04FF4807100
:10234000534801F03CF84FF40071514801F039F85E
:102350000121504801F033F802214E4801F02FF8D6
:102360004BE04FF480714A4801F029F84FF40071B6
:10237000474801F024F80121464801F022F80221E3
:10238000444801F01CF838E04FF48071404801F0F7
:1023900016F84FF400713E4801F011F801213D4854
:1023A00001F00DF802213B4801F00BF825E04FF455
:1023B0008071374801F005F84FF40071344801F09E
:1023C00000F80121334800F0FCFF0221314800F001
:1023D000F8FF12E04FF480712D4800F0F0FF4FF449
:1023E00000712B4800F0EBFF01212A4800F0E7FFC5
:1023F0000221284800F0E3FF00BF00BF10BD2DE917
:10240000F0410025002700240026A0464FF6FF706B
:10241000FEF75EFB00BF37E000242EE0611C01EBFD
:10242000810107EBC1014A1E04EB840107EBC100E7
:1024300040F23F130021FEF710FD002519E004EBE8
:102440008400C00000EB800005EB801007EB8701E3
:1024500000EB8116012101EB46000F49085C4FEAB1
:10246000002811F8160040EA08084046FEF7FEF87A
:102470006D1CB5F5A07FE2DB641C062CCEDB4FF6AD
:10248000FF7000F071F97F1C282FC5DBBDE8F081DB
:10249000000C014000180140521D050870B540F2C3
:1024A0003F13EF2200210846FEF7D7FC00240CE082
:1024B000012101EB4400FF49085C050211F81400FA
:1024C00005432846FEF7D2F8641CFB488442EFD34C
:1024D00070BD70B540F23F13EF2200210846FEF7B1
:1024E000BCFC00240CE0012101EB4400F349085C32
:1024F000050211F8140005432846FEF7B7F8641CDE
:10250000ED488442EFD370BD70B540F23F13EF2227
:1025100000210846FEF7A1FC00240CE0012101EB9C
:102520004400E749085C050211F8140005432846F9
:10253000FEF79CF8641CE0488442EFD370BD10B5F0
:1025400000240CE0DF48015DDF4802F0B7FB00BF6C
:102550004021DD4802F009FC0028F9D0641CD9486C
:10256000005D0028EED100240CE0D848015DD6487B
:1025700002F0A4FB00BF4021D34802F0F6FB002884
:10258000F9D0641CD148005D0028EED100240CE095
:10259000CF48015DCC4802F091FB00BF4021CA4802
:1025A00002F0E3FB0028F9D0641CC948005D002854
:1025B000EED100240CE0C748015DC34802F07EFB69
:1025C00000BF4021C04802F0D0FB0028F9D0641CB5
:1025D000C048005D0028EED100240CE0BC48015D3D
:1025E000B94802F06BFB00BF4021B74802F0BDFBC9
:1025F0000028F9D0641CB648005D0028EED1002404
:102600000CE0B348015DB04802F058FB00BF402128
:10261000AD4802F0AAFB0028F9D0641CAC48005D6C
:102620000028EED100240CE0A848015DA64802F085
:1026300045FB00BF4021A44802F097FB0028F9D0D9
:10264000641CA248005D0028EED100240CE0A248E2
:10265000015D9D4802F032FB00BF40219A4802F024
:1026600084FB0028F9D0641C9B48005D0028EED153
:1026700000240CE09948015D934802F01FFB00BF65
:102680004021914802F071FB0028F9D0641C934866
:10269000005D0028EED100240CE09148015D8A48DD
:1026A00002F00CFB00BF4021874802F05EFB0028CF
:1026B000F9D0641C8A48005D0028EED100240CE0AB
:1026C0008848015D804802F0F9FA00BF40217E4849
:1026D00002F04BFB0028F9D0641C8248005D002802
:1026E000EED110BD1FB54FF4E13000900020ADF8E1
:1026F0000400ADF80600ADF80800ADF80C000C20A1
:10270000ADF80A006946704802F001FA012240F271
:1027100025516D4802F074FA012240F227716A488F
:1027200002F06EFA0121684802F05EFA1FBD08B59A
:10273000012144F27C0001F021FA4FF40070ADF861
:10274000000018208DF803006946674800F090FDEE
:102750004FF48060ADF8000004208DF80300694656
:10276000614800F085FD08BD00E0401E0028FCD156
:10277000704710B502F050FB052190FBF1F201FB10
:102780001200401C5949086010BD10B5002458487B
:10279000007801282AD10A20FEF7BAFE40215548C8
:1027A00000F0F3FD0446F4B91AE00A20FEF7B4FD88
:1027B000FEF714FE50480068504908605048006811
:1027C0005049086040214B4800F0DFFD04460020DE
:1027D00047490870FFF7CDFF01204B49086001E031
:1027E000002CE2D002E000204149087010BD70B515
:1027F0000024002500203D490860FFF798FFFFF7FF
:1028000071FFFFF74BFEFFF79AFEC4E020212E4830
:1028100002F0ABFA0546012D33D12B4802F052FAF3
:10282000C4B22146284802F049FA0D21264802F098
:1028300045FA0120344908601B2C1BD0312C02D0F2
:10284000322C1CD10BE029480068401C2749086045
:1028500008460068062801D10120086010E02348DE
:102860000068401E214908600846006808B9052034
:10287000086005E0002400201C49086000E000BF5B
:1028800000BFFFF782FF19480068062873D2DFE80F
:1028900000F0033F4B5865731B480068012836D190
:1028A0000520FFF72FFDFFF74AFEFFF7F7FD002099
:1028B00015492BE0526D0008042C010052C5020896
:1028C000521D050858000020003801406200002019
:1028D000980000200001002036010020680100203F
:1028E0009A010020CE000020000801405000002086
:1028F00029000020000C0140400000203000002092
:10290000440000203800002054000020086041E00E
:1029100021480068012806D1FFF7F4FCFFF7D9FD34
:1029200000201D49086035E01B480068012807D1D8
:102930000220FFF7E7FCFFF7E7FD002016490860DB
:1029400028E015480068012807D10320FFF7DAFCCA
:10295000FFF73EFC0020104908601BE00E480068AD
:10296000012807D10420FFF7CDFCFFF748FD002028
:10297000094908600EE00CE007480068012807D10B
:102980000620FFF7BFFCFFF791FC0020024908601A
:1029900000E000BF00BF39E75400002030BF70479F
:1029A00020BF704740BF7047BFF36F8F7047BFF3C2
:1029B0004F8F7047BFF35F8F704701DF7047EFF3B2
:1029C0001480704780F31488BFF36F8F7047EFF364
:1029D0000980704780F309887047EFF308807047DB
:1029E00080F30888704762B6704772B67047EFF39D
:1029F0001080704771B6704761B67047EFF313806F
:102A0000704780F311887047EFF31280704740BA27
:102A1000704700BA70470000034800470348044964
:102A2000044A054B704700003101000848030020AC
:102A3000480B00204807002048070020002050498C
:102A400008605049C1F804044D4908310860091D67
:102A500008604D484A49143108607047817900295F
:102A60004CD04849D1F8001402689143454AC2F855
:102A700000141146D1F8041402689143404A121D13
:102A8000116001793F4A1144D1F8001402681143E2
:102A900002793C4B1A44C2F800141946D1F80814C4
:102AA000026891431A46C2F808141146D1F80C1472
:102AB00002689143324A0C3211604179102910D1D9
:102AC0001946D1F80814026811431A46C2F80814CE
:102AD0001146D1F80C14026811431A46C2F80C14BE
:102AE00018E04179274A1144D1F8001402681143D3
:102AF0004279244B1A44C2F800140BE00179214AB0
:102B00001144D1F800140268914302791D4B1A4414
:102B1000C2F8001470470021016001710C2141715D
:102B20000021817170471649103109680143154A27
:102B3000C2F81014704701460020114A143212687E
:102B40000A4201D0012000E0002070470C491431F6
:102B500008607047014600200022094B1B6803EA09
:102B60000102084BD3F814340B4202D00AB1012001
:102B700000E00020704702491431086070470000EF
:102B80000004014000000140FFFF070030B943F29C
:102B9000DB014FF0204242F8201005E043F2D20161
:102BA0004FF0204242F820106FF07042411C4FF06D
:102BB000204343F8212011461A4602EB8002C2F856
:102BC0000411704710280AD118214FF020421166D5
:102BD000402151664FF0FC319166D16610E018211A
:102BE000F94A116040214FF02042C2F884104FF0A2
:102BF000FC31F54A083211604FF02042C2F88C10C7
:102C000070471820F0492031086000200906C1F8FB
:102C1000A4004FF0FC30EC4928310860091D086021
:102C2000091D08607047D0E901121143C2681143C1
:102C3000026911434269114382691143C269114318
:102C4000026A1143426A1143826A1143C26A114304
:102C5000026B11434FF02043026843F82210816851
:102C6000082908D11A46016852F8211041F04001A4
:102C7000026843F82210416B0968426B526841EACE
:102C80000211426B926841EA0221426BD26841EA2A
:102C90000241426B126941EA0251426B526941EAB8
:102CA0000262416B89690A430168491C4FF0204365
:102CB00043F82120816AB1F5804F1ED1816B0968EC
:102CC000826B526841EA0211826B926841EA0221EA
:102CD000826BD26841EA0241826B126941EA025179
:102CE000826B526941EA0261826B92691143026808
:102CF00003EB8202C2F8041108E06FF070414FF05C
:102D00002043026803EB8202C2F80411704730B519
:102D1000002100220023446844F0080485682C4305
:102D2000C5682C4305692C4345692C43856944EAF1
:102D30004524C56944EA4531046A2468056A6D681A
:102D400044EA0524056AAD6844EA0544056AED686D
:102D500044EA0562446A2468456A6D6844EA0524C9
:102D6000456AAD6844EA0544456AED6844EA05638E
:102D70000468102C05D14FF020442166A266E3665A
:102D800008E0914C21604FF02044C4F888208E4C1C
:102D90000C34236030BDD0E900121143826841EA4F
:102DA0004221C26841EA4231874A203211600169FA
:102DB00009680269526841EA02210269926841EA9F
:102DC00002410269D26841EA02617F4A28321160F9
:102DD000416909684269526841EA02214269926880
:102DE00041EA02414269D26841EA0261764A2C32E4
:102DF0001160816909688269526841EA0221826929
:102E0000926841EA02418269D26841EA02614FF068
:102E10002042C2F8B01070470021016002214160D9
:102E200000218160C160016141618161C1614FF434
:102E3000805101624900416200218162C1620163E7
:102E40000F21426B1160426B5160FF21426B916018
:102E50000F21426BD160426B1161426B51610021C5
:102E6000426B91610F21826B1160826B5160FF2177
:102E7000826B91600F21826BD160826B1161826BDA
:102E800051610021826B9161704710210160002126
:102E900041608160C160016141618161C161FC216A
:102EA000026A1160026A5160026A9160026AD1602E
:102EB000426A1160426A5160426A9160426AD1601E
:102EC00070470021016041608160C160FC2102699E
:102ED000116002695160026991600269D1604269C2
:102EE000116042695160426991604269D1608269B2
:102EF000116082695160826991608269D160704716
:102F000051B14FF0204252F8202042F001024FF020
:102F1000204343F8202009E04FF0204252F82020BF
:102F20002A4B1A404FF0204343F82020704799B1B4
:102F3000102808D14FF02042126E42F004024FF0E8
:102F400020431A661DE0204A126842F004024FF046
:102F50002043C3F8802014E0102809D14FF020420C
:102F6000126E1A4BDB1E1A404FF020431A6608E01F
:102F7000154A1268154BDB1E1A404FF02043C3F868
:102F80008020704748B110492031096841F00401A0
:102F90004FF02042C2F8A01009E00B492031096827
:102FA0000A4AD21E11404FF02042C2F8A0107047CA
:102FB000B9B110280CD14FF02042126E42F04002FD
:102FC0004FF020431A661FE0800000A0FEFF0F00B4
:102FD000714A126842F040024FF02043C3F880204B
:102FE00012E0102808D14FF02042126E6B4B1A40AD
:102FF0004FF020431A6607E0674A1268674B1A4091
:103000004FF02043C3F8802070470146002010296C
:1030100003D14FF02042506F02E05F4A1432106833
:10302000704710B5F2B1102807D14FF020435B6E06
:103030000B434FF02044636632E0B0F5807F08D147
:10304000554B1B1D1B680B434FF02044C4F88430C4
:1030500026E0514B24331B680B434FF02044C4F847
:10306000A4301DE0102807D14FF020435B6E8B4346
:103070004FF02044636613E0B0F5807F08D1464BE3
:103080001B1D1B688B434FF02044C4F8843007E0BD
:10309000414B24331B688B434FF02044C4F8A430C9
:1030A00010BD10B5034600200022102B03D14FF0B5
:1030B0002044626E09E0B3F5807F03D1364C241DB5
:1030C000226802E0344C243422680A4201D00120F4
:1030D00000E0002010BD102807D14FF02042526EB2
:1030E0008A434FF020435A6613E0B0F5807F08D141
:1030F000294A121D12688A434FF02043C3F88420E6
:1031000007E0254A243212688A434FF02043C3F86F
:10311000A420704770B5024600200023002400253B
:10312000102A03D14FF02046736E09E0B2F5807F7C
:1031300003D1194E361D336802E0174E243633682A
:1031400003EA010403EAD10514B10DB1012000E046
:10315000002070BD102808D14FF02042526E22EAA4
:10316000D1024FF020435A6615E0B0F5807F09D1B7
:10317000094A121D126822EAD1024FF02043C3F817
:10318000842008E0044A2432126822EAD1024FF077
:103190002043C3F8A4207047800000A0BFFF0F00A9
:1031A00010B50446C049601A8C422FD009DCBF48D4
:1031B000201810D0B0F5806F16D0B0F5006F4AD14E
:1031C0001BE0B0F5806F2AD0B0F5006F30D0B0F5BD
:1031D000406F40D135E00121042000F0E9FC0021DE
:1031E000042000F0E5FC37E00121082000F0E0FCBD
:1031F0000021082000F0DCFC2EE00121102000F06E
:10320000D7FC0021102000F0D3FC25E00121202074
:1032100000F0CEFC0021202000F0CAFC1CE00121BF
:10322000402000F0C5FC0021402000F0C1FC13E06C
:103230000121802000F0BCFC0021802000F0B8FCBF
:103240000AE00121080200F0B3FC00214FF4807075
:1032500000F0AEFC00E000BF00BF10BD10B50121C2
:10326000084600F0A5FC0021012000F0A1FC10BDE3
:10327000F0B500220023002400250026002791F845
:1032800003C00CF00F0291F803C01CF0100F03D024
:1032900091F802C04CEA0202B1F800C01CF0FF0F26
:1032A00030D0066800242AE04FF0010C0CFA04F537
:1032B000B1F800C00CEA0503AB421FD1A5004FF0E6
:1032C0000F0C0CFA05F7BE4302FA05FC4CEA0606A1
:1032D00091F803C0BCF1280F05D14FF0010C0CFA96
:1032E00004FCC0F814C091F803C0BCF1480F05D12C
:1032F0004FF0010C0CFA04FCC0F810C0641C082C40
:10330000D2D30660B1F800C0BCF1FF0F34DD4668CF
:1033100000242EE004F1080C4FF0010E0EFA0CF51B
:10332000B1F800C00CEA0503AB4221D1A5004FF073
:103330000F0C0CFA05F7BE4302FA05FC4CEA060630
:1033400091F803C0BCF1280F05D104F1080C0EFA66
:103350000CFEC0F814E091F803C0BCF1480F07D18F
:1033600004F1080C4FF0010E0EFA0CFEC0F810E04C
:10337000641C082CCED34660F0BD4FF6FF7101806F
:10338000022181700421C1707047024600209368B9
:103390000B4201D0012000E0002070470146886800
:1033A00080B2704702460020D3680B4201D0012052
:1033B00000E0002070470146C86880B27047016194
:1033C0007047416170470AB1016100E04161704797
:1033D000C16070474FF480320A438261816182612B
:1033E0008269826970470022314B1A684FF68073F8
:1033F0001A4042EA00120A432D4B1A6070472D49C9
:10340000C8617047F0B50022002300250024284E33
:103410007568C0F3034482B200F44016B6F5401F4D
:1034200008D125F07065224E766826F07066204F30
:103430007E6012E000F48016B6F5801F06D10326E8
:1034400006FA04F39D4345F0706506E0460D36012B
:1034500002FA06F6B54345F0706521B1460D360116
:1034600002FA06F63543124E7560F0BD30B5002203
:103470008B071C0F0F2303FA04F20D4B08338C103B
:1034800053F8244094438D1043F825408C1053F892
:1034900024308C07240F00FA04F42343044C08342E
:1034A0008D1044F8253030BD0014014000F8FEBFF7
:1034B00000000140000020420020411EF24A11603D
:1034C0000A09F1498039C1F88420411E4FF0E022F9
:1034D000C2F880120A09ED490A6000BF04E0002228
:1034E000EB4941F82020401C0F28F8D370470020FA
:1034F0004FF02061E74A116000214FF0E022C2F84E
:10350000081DE549E34A083211600021121D1160CF
:10351000121D116000BF05E00022DE49143141F8A0
:103520002020401C0328F7D30021DA4A2032116002
:10353000491E4FF0E022C2F8281DD64A28321160F9
:103540004FF0E022C2F8301D7047D3490143D14A01
:10355000083211607047F0B50021002200230024DA
:103560000F25C678002E36D0CA4E0836366806F4C7
:10357000E066C6F5E066310AC1F10404CD40467844
:1035800006FA04F186782E40314309010678B60721
:10359000F60EB140BE4E0778BF1056F827200678C9
:1035A000B607F70EFF2606FA07F39A4319400A43B7
:1035B000B74E0778BF1046F82720067806F01F0799
:1035C0000126BE4007787F114FF0E02C0CEB8707F7
:1035D000C7F800610BE0067806F01F060127B74028
:1035E000A94E90F800C04FEA6C1C46F82C70F0BD54
:1035F0000021017041708170C170704710B5FFF7F4
:10360000F4F910BD10B5FFF7EEF910BD10B5FFF7D6
:10361000F1F910BD10B5FFF7EFF910BD10B5044674
:103620002001FFF7EEF910BD10B5FFF7EDF910BD61
:1036300098480068C0F30930704710B50146002073
:10364000002201F01F04012303FA04F28E4B8033A1
:103650004C1153F824301340934201D1012000E073
:10366000002010BD8D490860704700F01F01012245
:103670008A408649091F431141F823207047854835
:103680000068C0F30900704710B501460020002211
:1036900001F01F04012303FA04F27C4B7C334C112C
:1036A00053F824301340934201D1012000E0002060
:1036B00010BD7848001F00687047794A0A400243ED
:1036C000744B1B1D1A6070477348001D7149083107
:1036D000086070477048401C6E49083108607047A8
:1036E00041B16C4A0C32126802434FF0E023C3F838
:1036F000102D07E0674A0C32126882434FF0E02336
:10370000C3F8102D704710B5002200F01F040123EC
:1037100003FA04F241B15F4B20331B6813434FF0AF
:10372000E024C4F8243D07E05A4B20331B68934340
:103730004FF0E024C4F8243D10BDF0B50023FF2471
:1037400000250026534F08373F6807F4E067C7F5A8
:10375000E0673E0AC6F10403F44001FA03F602EA08
:1037600004073E43360100F0C0039B09C0F3012467
:10377000E700BE404FEAC40CFF2707FA0CF5454F9F
:10378000143757F823C02CEA050C47F823C057F824
:1037900023C04CEA060C47F823C0F0BD10B5014623
:1037A0000020002200238B0A03F00F03012404FAF7
:1037B00003F3384C2034246804EA03029A4201D10E
:1037C000012000E0002010BD002100F01F01314A5F
:1037D000136801228A4013434FF0E022C2F8043DEF
:1037E000704710B5002100F01F012A4A13684C1ED3
:1037F0000122A24013434FF0E022C2F8043D10BD65
:1038000010B50146002000230022C1F383320124B9
:1038100004FA02F21F4C2034246804EA02039342A3
:1038200001D1012000E0002010BD30B5014600208C
:1038300000220023C1F38142C1F301531AB9154C90
:103840002834206811E0012A0CD1124C2434246859
:10385000DD0024FA05F0022B02D000F00F0004E096
:10386000C0B202E00B4C2C34206830BD0146002071
:103870000022C1F380521AB9064B3033186802E0B7
:10388000044B34331868704780E100E084E200E0C4
:1038900000E400E004ED00E00000FA0500EF00E0C5
:1038A00080FFFF1FDE48006840F00100DC4908602F
:1038B00008464068DB490840D94948600846006826
:1038C000D9490840D64908600846006820F480209D
:1038D00008600846406820F4FE00486000208860C8
:1038E0007047CF49096821F48031CD4A11601146F3
:1038F000096821F480211160B0F5803F03D0B0F554
:10390000802F0ED106E0C649096841F48031C44ACF
:10391000116007E0C249096841F4A021C04A116062
:1039200000E000BF00BF704710B501460022002331
:1039300000204A11012A02D1B94C236806E0022A6C
:1039400002D1B74C236A01E0B54C636A01F01F0253
:10395000012494401C4201D0012000E0002010BD51
:1039600010B5002400BF3120FFF7DEFFAF4908701B
:10397000081F0068401C091F0860081D007828B94E
:1039800008460068A0F58071FF39ECD13120FFF7BF
:10399000CBFF08B1012400E00024204610BD002127
:1039A0009F4A116821F0F80141EAC0011160704797
:1039B0009F49086070470022994B5A6822F47C1294
:1039C00040EA01031A43964B5A60704798490866CB
:1039D00070470021924A516821F003010143516070
:1039E00070478F48406800F00C00704700218C4AF7
:1039F000516821F0F0010143516070470021884A6D
:103A0000516821F4E0610143516070470021844A0C
:103A1000516821F4605141EAC0015160704729B1F9
:103A20007F4A527A02437E4B5A7206E07C4A527AAF
:103A3000C343DBB21A407A4B5A7270477C49D83183
:103A4000086070470021764A516821F440410143E3
:103A5000516070470021724A20321170704A82F81A
:103A60002010012802D004280AD104E001216C4A68
:103A70002032117005E00521694A2032117000E002
:103A800000BF00BF70476B49086070476449096A0E
:103A90000143634A116270476649443908607047C0
:103AA00030B500210022002300245D4D6D6805F033
:103AB0000C0121B1042905D0082923D105E05E4D70
:103AC000056022E05C4D05601FE0554D6D6805F412
:103AD0007012022505EB9242514D6D6805F480335A
:103AE0001BB9564D554305600BE04D4D6D6815F4FF
:103AF000003F03D0514D5543056002E04E4D554304
:103B0000056002E04C4D056000BF00BF444D6D688C
:103B100005F0F00109094A4D6C5C0568E540456017
:103B20003F4D6D6805F4E061090A454D6C5C4568E0
:103B3000E54085603A4D6D6805F46051C90A404D15
:103B40006C5C4568E540C560354D6D6805F44041E5
:103B5000890B3B4D10356C5CC568B5FBF4F5056110
:103B600030BD29B12E4A526902432D4B5A6104E0FF
:103B70002B4A526982432A4B5A61704729B1284A1D
:103B800092690243264B9A6104E0254A9269824376
:103B9000234B9A61704729B1214AD2690243204BD5
:103BA000DA6104E01E4AD26982431D4BDA61704734
:103BB00029B11B4AD2680243194BDA6004E0184A63
:103BC000D2688243164BDA60704729B1144A1269F1
:103BD0000243134B1A6104E0114A12698243104BED
:103BE0001A61704713494039086070471049C8642A
:103BF00070470B49C87170470948406A40F08070AF
:103C000007494862704701460020054A92680A4207
:103C100001D0012000E00020704701498872704700
:103C2000001002400000FFF8FFFFF6FED001002068
:103C3000000042428004424200127A0000093D0026
:103C40005275070810B50446CB4820180FD0B0F5C0
:103C5000806F16D0B0F5784F1DD101210803FFF712
:103C6000A7FF00214FF48050FFF7A2FF14E00121CD
:103C70008803FFF7AAFF00214FF48040FFF7A5FF5C
:103C80000AE00121C803FFF7A0FF00214FF4004024
:103C9000FFF79BFF00E000BF00BF10BD10B5002282
:103CA000028802F441520B884C8823438C882343BA
:103CB000CC8823430C8923434C8923438C89234399
:103CC000CC8923431A430280838B4FF2FF74234035
:103CD00083830B8A038210BD2DE9F04786B004462A
:103CE0000D4600260227B0464FF00109B246A08BD0
:103CF0004FF240010840A08302202084A68B28892F
:103D0000022801D100BF31E0A88810B94FF00109A5
:103D100001E04FF0020901A8FFF7C2FEE888B0F504
:103D2000007F0BD1019800EB800040002989090237
:103D3000B0FBF1F0401D1FFA80FA0CE04FEA491089
:103D400029894843019901EB81014900B1FBF0F059
:103D5000401D1FFA80FA0A20BAFBF0FA0AF00108A7
:103D6000AAEB0800C0F34F074FEA0828022F01DB37
:103D7000FF2F02DD02274FF0000847EA0800E9881C
:103D800008432084288840F4006069880843A98893
:103D90000843698908430643A68306B0BDE8F08757
:103DA0000021018041808180C18001814181818128
:103DB000C1810721018270470021018041808180FB
:103DC000C1800221018100214181704721B1028817
:103DD00042F04002028004E002884FF6BF731A40AE
:103DE0000280704721B1828B42F48062828304E0BA
:103DF000828B4FF6FF331A408283704770B50023E1
:103E000000240B1101259D40ACB21AB185882543D1
:103E1000858004E08588E643B6B23540858070BD74
:103E200010B51AB183880B43838004E08388CC43A8
:103E3000A4B22340838010BD8181704701468889E8
:103E40007047A1F57E42FF3A04D0028842F48072A6
:103E5000028004E002884FF6FF631A400280704738
:103E600021B1828842F00402828004E082884FF609
:103E7000FB731A408280704702884FF2FF731A402A
:103E8000028002880A4302807047018841F4805111
:103E90000180704721B1028842F40052028004E0A0
:103EA00002884DF6FF731A400280704702460020D8
:103EB000012901D0108B00E0908A70470146088AE2
:103EC0007047B1F5804F04D1028842F480420280ED
:103ED00004E002884BF6FF731A40028070470246E6
:103EE000002013890B4201D0012000E00020704720
:103EF000202905D10289028842F04002028007E0B1
:103F0000402901D0082901D1028901E0CA43028178
:103F10007047F0B50246002000230024002501F080
:103F20000F070126BE40B3B20C110126A640B4B261
:103F3000968806EA040516891E4202D00DB10120BA
:103F400000E00020F0BD10B50022552905D10389FD
:103F5000038843F0400303800CE0562901D0532925
:103F600001D1038906E001F00F040123A3409AB2B6
:103F7000D343038110BD000000C8FFBF10B5044645
:103F8000F849601A8C4245D00CDCB4F1804F1DD04A
:103F9000F548201823D0B0F5806F29D0B0F5006F18
:103FA00054D12EE0B0F5806F3DD0B0F58E3F03D0F8
:103FB000B0F5923F4AD13FE00121C802FFF7F8FD7A
:103FC00000214FF40060FFF7F3FD40E001210846B7
:103FD000FFF7FBFD00210120FFF7F7FD37E001218E
:103FE0000220FFF7F2FD00210220FFF7EEFD2EE098
:103FF00001210420FFF7E9FD00210420FFF7E5FD82
:1040000025E001210820FFF7E0FD00210820FFF74F
:10401000DCFD1CE001211020FFF7D7FD002110205E
:10402000FFF7D3FD13E001212020FFF7CEFD002193
:104030002020FFF7CAFD0AE001214803FFF7B8FD81
:1040400000214FF40050FFF7B3FD00E000BF00BFB8
:1040500010BD028802F08F020280CA884B881A4382
:1040600003881A4302808A8882850A880285012291
:104070008282BE4A904202D0BD4A904201D10A7A61
:104080000286704770B5002200230024058C4FF68D
:10409000FE7635400584038C8488028B4FF68F753D
:1040A0002A400D882A43751E2B400D892B434D88CD
:1040B0002B43CD888586AD4DA84202D0AC4DA84299
:1040C00013D14FF6F7752B404D892B434FF6FB75F7
:1040D0002B408D882B4347F6FF652C4047F6FF5554
:1040E0002C408D892C43CD892C438480028303840A
:1040F00070BD70B5002200230024058C4FF6EF76CA
:1041000035400584038C8488028B48F6FF752A406D
:104110000D882D0642EA15424FF6DF752B400D89BA
:104120002D0543EA15434D882D0543EA1543CD88F7
:1041300005878E4DA84202D08D4DA8421BD14FF667
:104140007F752B404D892D0543EA15434FF6BF750A
:104150002B408D882D0543EA154347F6FF352C404B
:1041600047F2FF752C408D89AD0444EA1544CD8992
:10417000AD0444EA154484800283038470BD70B5A5
:10418000002200230024058C4FF6FF66354005848D
:10419000038C8488828B4FF68F752A400D882A43C2
:1041A0004FF6FF552B400D892D0643EA15434D88E8
:1041B0002D0643EA1543CD8885876C4DA84202D071
:1041C0006B4DA8421BD14FF2FF752B404D892D0638
:1041D00043EA15434FF6FF352B408D882D0643EA01
:1041E000154346F6FF752C4045F6FF752C408D892A
:1041F0002D0544EA1544CD892D0544EA15448480F3
:104200008283038470BD70B5002200230024058CD6
:104210004EF6FF7635400584038C8488828B48F601
:10422000FF752A400D882D0642EA15424DF6FF75AE
:104230002B400D892D0743EA15434D882D0743EA8E
:104240001543CD88A0F84050484DA84202D0484DB3
:10425000A84205D1C4F30D048D89AD0544EA154487
:1042600084808283038470BD828B4FF2FF331A40B7
:104270008283828B0B0642EA134282837047F0B539
:10428000002400250026078C4EF6FF7C07EA0C0769
:104290000784848B058C0F073E0C40F6FF473C409B
:1042A00017063F0C4FEA037C47EA1C473C434DF698
:1042B000FF773D4046F480573D4384830584F0BD3D
:1042C000828B4FF6F3731A408283828B0A43828378
:1042D0007047F0B5002400250026078C4FF6FF6CD0
:1042E00007EA0C070784848B058C0F063E0C4FF6FB
:1042F0000C773C401F0542EA17473C434FF6FF57F7
:104300003D4046F480773D4384830584F0BD028BB5
:104310004FF2FF331A400283028B0B0642EA13422C
:1043200002837047F0B5002400250026078C4FF665
:10433000EF7C07EA0C070784048B058C0F053E0C05
:1043400040F6FF473C401F0744EA1744170644EA7B
:1043500017444FF6DF773D4046F010073D43048396
:104360000584F0BD0010004000FCFFBF002C0140A0
:1043700000340140028B4FF6F3731A400283028B24
:104380000A4302837047F0B500240025068C4FF6DF
:10439000FE773E400684048B058C4FF60C76344045
:1043A0001E0542EA164634437E1E354041F00106A2
:1043B000354304830584F0BD70B504460D46288856
:1043C00050B92B89AA8869882046FFF7DCFFE98865
:1043D0002046FFF7CFFF25E0288804280AD12B8943
:1043E000AA8869882046FFF79DFFE9882046FFF7E5
:1043F0008EFF17E0288808280AD12B89AA886988A7
:104400002046FFF766FFE9882046FFF759FF09E0DD
:104410002B89AA8869882046FFF731FFE988204662
:10442000FFF722FF70BD2DE9F04104460D4600263E
:104430000127688808B9022600E00026A88801281C
:1044400001D1022700E001272888A0B92B89AA887A
:1044500069882046FFF797FFE9882046FFF78AFF23
:104460002B893A4631462046FFF75CFFE988204613
:10447000FFF74DFF13E02B89AA8869882046FFF7D4
:1044800051FFE9882046FFF742FF2B893A46314623
:104490002046FFF778FFE9882046FFF76BFFBDE86D
:1044A000F0810A884B881A438B881A43CB881A43B9
:1044B0000B891A434B891A438B891A43A0F844206D
:1044C00070474FF6FF71818000210180C1804180DB
:1044D000017270470021018041808180C18001818B
:1044E00041818181C181704700210180418001218A
:1044F00081800021C18001817047002101804180BD
:104500008180C180018141818181704721B1028810
:1045100042F00102028004E0028840F2FE331A40B9
:104520000280704731B1B0F8442042F40042A0F854
:10453000442005E0B0F84420C2F30E02A0F8442065
:10454000704710B51AB183890B43838104E08389D6
:10455000CC43A4B22340838110BD8182704741EADD
:104560000203A0F84830704710B51AB183890B4395
:10457000838104E08389CC43A4B22340838110BDAE
:1045800001894FF6F87211400181704700220289BB
:104590004FF68F731A400A430281704730B50446C4
:1045A0000D4629462046FFF7F1FF208940F007001D
:1045B000208130BD2DE9F04104460D4616461F46C8
:1045C000602D06D13B46012231462046FFF7AAFE68
:1045D00005E03B46012231462046FFF7D4FE29463E
:1045E0002046FFF7D3FF208940F007002081BDE877
:1045F000F08170B500240489E4B241EA02051E0688
:1046000045EA16452C43048170BD2DE9F04104466E
:104610000D46164698460027434632462946204610
:10462000FFF7E7FF27894FF6F870074047F00707C5
:104630004FF68F70074047F070072781BDE8F08183
:10464000F0B504460D4616461F463B4632462946FF
:104650002046FFF7CEFF208940F480402081F0BD46
:104660000185828270470022028840F28F331A400F
:104670000A4302807047F0B5002400250026048913
:10468000058B068C4FF6F8773C400C434FF6FC4701
:104690003D4040F201173D434FF6DD773E401F0598
:1046A00042EA17473E43048105830684F0BD002299
:1046B000028B4FF68F731A400A4302837047002221
:1046C000028B48F6FF731A400B0642EA134202833C
:1046D00070470022828B4FF68F731A400A43828301
:1046E00070470022828B48F6FF731A400B0642EA9D
:1046F00013428283704721B1028842F08002028017
:1047000004E0028840F27F331A400280704721B1F2
:10471000828842F00402828004E082884FF6FB73B4
:104720001A408280704721B1828842F0080282805C
:1047300004E082884FF6F7731A408280704721B1F7
:10474000828842F00102828004E082884FF6FE7384
:104750001A40828070470022028B4FF6F7731A408E
:104760000A43028370470022028B4FF2FF731A4004
:104770000B0642EA1342028370470022828B4FF6F7
:10478000F7731A400A43828370470022828B4FF2EC
:10479000FF731A400B0642EA1342828370470022DD
:1047A000028B4FF6FB731A400A43028370470022C4
:1047B000028B4FF6FF331A400B0642EA1342028384
:1047C00070470022828B4FF6FB731A400A438283A4
:1047D00070470022828B4FF6FF331A400B0642EAE5
:1047E0001342828370470022028B4FF67F731A4078
:1047F0000A43028370470022028BC2F30E020B06AB
:1048000042EA1342028370470022828B4FF67F7385
:104810001A400A43828370470022828BC2F30E0241
:104820000B0642EA1342828370470022028C4FF645
:10483000FD731A400A43028470470022028C4FF62F
:10484000F7731A400A43028470470022028C4FF625
:10485000DF731A400B0542EA1342028470470022BC
:10486000028C4FF67F731A400B0542EA1342028412
:1048700070470022028C4FF6FF531A400B0642EAA3
:104880001342028470470022028C4FF2FF731A40D9
:104890000B0642EA1342028470470022028C4DF656
:1048A000FF731A400B0742EA13420284704710B5A7
:1048B000038C01248C40E443A4B223400384038C82
:1048C00002FA01F4A4B22343038410BD10B5038C93
:1048D00004248C40E443A4B223400384038C02FAF2
:1048E00001F4A4B22343038410BD30B5048C01232A
:1048F0008B40DB439BB21C40048409B1082912D1D0
:1049000000F1180303EB61031C684FF68F731C4022
:1049100000F1180303EB61031C6000F1180303EBC3
:1049200061031A6019E00B1F9CB200F1180303EB3E
:1049300064031C6848F6FF731C400B1F9DB200F116
:10494000180303EB65031C6013061C0C0B1F9DB2C0
:1049500000F1180303EB65031C6030BD21B1028830
:1049600042F00202028004E0028840F2FD331A4065
:104970000280704721B1028842F00402028004E004
:10498000028840F2FB331A400280704721B18288CE
:1049900042F08002828004E082884FF67F731A40E2
:1049A00082807047028840F2F7331A400280028802
:1049B0000A430280704782884FF68F731A408280C4
:1049C00082880A438280704702894FF6F8731A4042
:1049D000028102890A430281704702894FF67F7380
:1049E0001A40028102890A4302817047818470471C
:1049F000818570478186704701877047818770473E
:104A0000A0F8401070470288D2B2028002880A43A0
:104A1000028070470146888E70470146088F7047B4
:104A20000146888F70470146B1F840007047014643
:104A3000888C70470146088D704702460020138A13
:104A40000B4201D0012000E000207047CA430282DF
:104A5000704730B50246002000230024158A05EA7D
:104A60000103958905EA010413B10CB1012000E0AE
:104A7000002030BDCA4302827047000010B50446D2
:104A8000D749601A8C422BD006DCD648201813D0A8
:104A9000B0F5806F38D119E0B0F5806F2AD0B0F54D
:104AA0006C4F31D101218803FFF782F800214FF4C8
:104AB0008040FFF77DF828E001214804FFF785F8E2
:104AC00000214FF40030FFF780F81EE00121880438
:104AD000FFF77BF800214FF48020FFF776F814E011
:104AE0000121C804FFF771F800214FF40020FFF7FF
:104AF0006CF80AE001210805FFF767F800214FF480
:104B00008010FFF762F800E000BF00BF10BD2DE984
:104B1000F04786B004460D460026002700BF00BFC0
:104B2000B246A246268A4CF6FF700640E888064345
:104B30002682A6894EF6F3100640A88829890843E4
:104B4000698908430643A681A68A4FF6FF400640BE
:104B5000A8890643A68201A8FEF7A2FF5446A248F0
:104B6000824501D1049F00E0039F07EBC70000EBE3
:104B7000071029688900B0FBF1F86420B8FBF0F059
:104B800006013009642101FB1089322101EB091073
:104B90006421B0FBF1F000F00F000643268106B05F
:104BA000BDE8F0874FF41651016000218180C1807B
:104BB00001810C21418100218181704710B50022C3
:104BC000028A4FF2FF031A400B884C8823438C88DB
:104BD0002343CC8823431A43028210BD0021018065
:104BE00041808180C180704721B1828942F40052A6
:104BF000828104E082894DF6FF731A4082817047FA
:104C0000F0B500240025002600230346C1F342141A
:104C100001F01F05012707FA05F6012C01D10C331D
:104C200004E0022C01D1103300E014331AB11F68E4
:104C300037431F6002E01F68B7431F60F0BD10B527
:104C40001AB1838A0B43838204E0838ACC43A4B2E3
:104C50002340838210BD028A4FF6F0731A4002820D
:104C6000028A0A430282704782894FF2FF731A4018
:104C7000828182890A438281704721B1828942F010
:104C80000202828104E082894FF6FD731A4082811C
:104C90007047028A4FF6DF731A400282028A0A4383
:104CA0000282704721B1028A42F48042028204E00B
:104CB000028A4BF6FF731A4002827047C1F3080262
:104CC0008280704701468888C0F308007047818958
:104CD00041F0010181817047028BD2B20283028BC5
:104CE00042EA012202837047028B02F47F42028370
:104CF000028B0A430283704721B1828A42F020026C
:104D0000828204E0828A4FF6DF731A408282704703
:104D100021B1828A42F01002828204E0828A4FF638
:104D2000EF731A408282704721B1828A42F00802F2
:104D3000828204E0828A4FF6F7731A4082827047BB
:104D4000828A4FF6FB731A408282828A0A438282E9
:104D5000704721B1828A42F00202828204E0828A94
:104D60004FF6FD731A408282704702460020138876
:104D70000B4201D0012000E000207047CA430280AE
:104D8000704770B502460023002400250020C1F3BF
:104D9000421501F01F04012606FA04F4012D02D188
:104DA0009689344006E0022D02D1168A344001E093
:104DB000968A34400B12012606FA03F31688334014
:104DC00014B10BB1012000E0002070BD10B500222D
:104DD00000230A1201249440A3B2DC43048010BDD6
:104DE000004C004000BCFFBF00380140194910B51D
:104DF00017220A6036224A60174A184B002100EB3E
:104E0000104442F82140164C491C372900FB04305D
:104E1000F5DB10BD0120E9E70E4B30B50E4C1968EB
:104E2000586854F8215054F82020491E2A4444F868
:104E300020204FF03604A0F10100196002D5C3E92B
:104E4000004003E00028586000DA5C6022F0004077
:104E500030BD0000D401002008020020E119D66610
:104E6000CD0D010070477047704710B500F008F88D
:104E7000006810BD10B5044600F002F8046010BDD3
:104E80000148704770470000E40200200048704766
:104E9000E40200207546FFF7F9FFAE4605006946BB
:104EA000534620F00700854618B020B5FDF7B6FD43
:104EB000BDE820404FF000064FF000074FF000081B
:104EC0004FF0000B21F00701AC46ACE8C009ACE89C
:104ED000C009ACE8C009ACE8C0098D46704704467B
:104EE000AFF300802046FBF78EF9704703494FF07F
:104EF0001800ABBE70470000F3FFFFFF2600020062
:104F000070B504000D4601D0012200E000220A43E2
:104F10000B4B22F000429A1AD20F0AD109A20CCAF6
:104F200000F0E6F805D20120FFF7A4FF07A103C9AE
:104F300070BD29462046BDE8704000F055B900001C
:104F40000000F07F000000000000000001000000F1
:104F50000000F87F02494FF0000000F0C8BD0000DB
:104F60000000F87F02494FF0000000F0C0BD0000D3
:104F70000000F87F00B54FF4001E1EEB410F08BF84
:104F8000002898BF1EEB430F08BF002A26D85DF803
:104F900004EBAFF3008051EA030C06D4994208BF3A
:104FA000904210D6EFF3008070478B4208BF8242D8
:104FB000EFF3008020F0104038BF40F0004080F355
:104FC000008878BF70474FF0010C38BFBCF1020F6A
:104FD00068BFBCF1000FEFF3008070475DF804EB91
:104FE0001CF4502F3FF4B6AF00F0B3BD4FF0807209
:104FF00012EB400F98BF12EB410F1DD8AFF30080AA
:1050000050EA010204D488420DD6EFF300807047C5
:105010008142EFF3008020F0104038BF40F00040A4
:1050200080F3008870474FF0010238BF022A68BF42
:10503000002AEFF3008070471CF4502F00F01E820E
:1050400000F087BD4FEAC12303B40A1543EA505369
:1050500018BF43F000430CD4A2F56072D2F19E0257
:1050600011DBFF2ACCBF002123FA02F1084602B06F
:10507000704701F1804212F5801F80F204804FF0EA
:10508000000002B0704703BCDFF828C0012841EBE4
:10509000010313F5001F88BF4CF4803C3FF662AF5C
:1050A0003CBF6FEAE1707047AFF300806FEAE170D8
:1050B00070470000E800020410F0004314BF4142B2
:1050C000014643F08043B1FA81FC03F1F87311FA11
:1050D0000CF1A3EB0C534FEA415008BF704703EBB0
:1050E000E12170474FF080430146FFF7ECBF00001D
:1050F00051EA030C17D41CF5801F58BFBCF5801F64
:1051000000F10680994218BF704708BF904270476F
:1051100007D711F5801F58BF13F5801F19D4994286
:105120007047894270471CF5801F08D5BCF5801F69
:10513000F7D58B4218BF704708BF824270474FF4C3
:10514000001C1CEB410F38BF1CEB430F01D28B42FC
:105150007047DFF808C0FFF70DBF00001900160404
:1051600053EA010C17D41CF5801F58BFBCF5801FF3
:1051700000F106808B4218BF704708BF824270471B
:1051800007D713F5801F58BF11F5801F19D48B4224
:1051900070479B4270471CF5801F08D5BCF5801FE7
:1051A000F7D5994218BF704708BF904270474FF437
:1051B000001C1CEB430F38BF1CEB410F01D299427E
:1051C000704783EA010182EA000081EA030380EA72
:1051D0000202DFF810C083EA010182EA0000FFF753
:1051E000C9BE0000190016044FF0E04C4CF07F6C73
:1051F00070B511EA0C0F00F078803CEA010E00F067
:105200007D8011F0004F40F087804FEA115C21EA69
:105210000C5141F480110CF1FD0C5FEA5C0C0CF5B3
:10522000C07C02D3400041EB01014FF000034FF07E
:1052300080424FEA812141EA90514FEA8020A1F15A
:1052400080414FF0805E8C1A22BFB4EB0E042146E1
:1052500002EB4E02400041EB01015FEA5E0EF2D12B
:1052600071EB020407D3B0F1004574F1000422BFD2
:1052700021462846521C400041EB01014FF0804E70
:10528000C51A71EB020408D3B5EB0E0574F10004E6
:1052900022BF2146284603EB4E03400041EB0101AB
:1052A0004FEA5E0EBEF1800FEAD151EA000418BF4A
:1052B0000224980A4FEA92215FEA340440EA8250BD
:1052C00001EB0C5100D170BD640050F1000024428C
:1052D00041F1000108BF20F0010070BDDEF5800E35
:1052E00050F1000041F1000170BD50EA013C00D1D5
:1052F00070BD01F000414FF0000070BDBDE870408E
:1053000050EA013CDFF81CC07FF42CAEAFF3008004
:10531000094258BF704701E0BDE870404FF00000FF
:1053200001497047170000040000F87F00F5000CE9
:105330001CF0FE4F09D0C1104FEA407001F16051DE
:1053400058BF7047A1F1E04170471CF4000F08D02E
:105350000146400008BF70474FF000004FEA30019F
:105360007047DFF814C0420240F08E80AFF3008037
:1053700040F4E001104670471800000490EA010F65
:1053800048BF81F0004100F1E482421A3CBF801A1C
:1053900089184FEAD0524FF07F4C1CEA410FA2EB24
:1053A000D15318BF9CEA026F00F040804FF0004CD0
:1053B0004CEA00204CEA012121FA03FC10EB0C0C12
:1053C00023D202F1FF325FEA1C2040EBC25038BF0B
:1053D00070471CF07F0F4FEA400C18BFBCF17F4FA5
:1053E00038BF7047C3F12003994008BF20F0010087
:1053F000BCF17F4F38BF7047A0F1C0404FF0FF01B4
:1054000041EAD0514FEAC15070474FEA3C00000AD0
:1054100040EBC25028BF1CF0FF0F4FEA400CE1D018
:1054200018BFBCF17F4F38BF7047E5E79CEA026FB9
:1054300005D010EA5C0F08BF00F000407047BCEBDD
:10544000410F4FEA400228BF9445DFF828C0C0F062
:105450001580AFF30080B2EB410F05D012F1807FD1
:1054600008BF70470846704790EA010F58BF704761
:1054700001487047010000040000C07F014800F0AF
:1054800036BB00000000C07F014800F030BB0000C8
:105490000000C07F4FF47F0C1CEAD0121EBF1CEA34
:1054A000D11392EA0C0F93EA0C0F00F0A58090EA5A
:1054B000010F48BF42F4807240F4000C41F4000038
:1054C0002CF07F4120F07F4000B58142A2EB030227
:1054D0000FF2401CACEB504EC0F100009EF800E013
:1054E0004FEA4E0E00FB0EFC38BF49004FEA2C1C61
:1054F00002F5FA020CFB0EF34FEACE1E4FEA112C16
:105500004FEAC1210EEB635E0EFB0CFC4FEA1C530D
:1055100000FB03114FEA112C4FEA01310EFB0CFC8A
:1055200002F4807E42EB22424FEADC4C00FB0C117D
:10553000C14228BF09184CEB0333012924BF4EF0A8
:10554000020E4EF0804E10EB410F24BF4EF0010EC4
:105550004EF0804E08BF4EF0040E4EF008015DF88C
:1055600004EB43EBC25018BFB2F57C0F38BF704755
:1055700041EAC07108BF20F00100B2F57C0F38BFCE
:10558000704729D512F0F00F1CBF00F1C04000F0A9
:1055900000407047008182838485868788898B8C50
:1055A0008D8E8F919293959697999A9C9D9FA0A28C
:1055B000A3A5A7A8AAACAEB0B2B3B5B7B9BCBEC0DC
:1055C000C2C5C7C9CCCED1D4D7D9DCDFE2E6E9EC7D
:1055D000F0F3F7FAFE0000004FEA400C0CF1807C7B
:1055E000BCF17E4F28BF7047B0F1C0404FF07F4004
:1055F0004CBF40104008704790EA010F0CEAD113ED
:1056000048BF42F48072624538BF634507D213F445
:105610007F0F23D080EA010000F0004070474FF078
:10562000807C1CEB400F98BF1CEB410FDFF840C0A3
:105630003FF624AFAFF300804FF0807C1CEB400FAF
:1056400002BF1CEB410F0B4870471CEB410F0CBF16
:10565000002020F0004040EAC250704712F47F0F53
:1056600004BF0448704742F0FF004FEAC050704743
:10567000040000040000C07F50EA010C00F1138018
:105680001CF5000F58BFBCF5000F01D488427047CD
:1056900007D710F5000F58BF11F5000F15D4884239
:1056A0007047894270471CF5000F04D5BCF5000F08
:1056B000F7D5814270474FF0807C1CEB400F38BF1C
:1056C0001CEB410F01D281427047DFF808C0FFF7A1
:1056D0008DBC000009001204C2154FEA002318BF58
:1056E00043F0004305D4D2F19E0213D923FA02F00D
:1056F0007047B0F14F4F0DD812F0FF0208BF23F0F2
:1057000000434FF00000D2F19E0223FA02F1A0EB19
:1057100001007047DFF82CC04FEA4001B1F17F4F24
:1057200088BF4CF4803C3FF6AFAE1EBF6FEAE0701E
:1057300080F000407047AFF300806FEAE07080F0C7
:105740000040704748000204C2154FEA002318BF0A
:1057500043F0004305D4D2F19E020AD323FA02F0AB
:1057600070474FEA4001B1F1FE4F02D24FF0000006
:105770007047DFF828C04FEA4001B1F17F4F88BF82
:105780004CF4803C3FF680AE1CBF6FEAE07070477F
:10579000AFF300806FEAE070704700006800020419
:1057A00010F0004218BF404242F08042B0FA80F14F
:1057B0008840A2EBC15202F1786208BF70474106EF
:1057C00042EB202018BF5FF0806C28BF20F0010062
:1057D00070474FF08042FFF7E9BF00004FF47F0CA5
:1057E0001CEAD0121EBF1CEAD11392EA0C0F93EAF6
:1057F0000C0F00F04A8090EA010F48BF42F480721B
:105800004FF0004C4CEA00204CEA01211A44A0FB66
:1058100001C3A2F50002BCF1000F18BF43F0010361
:1058200002F4807CB3F1004F38BF5B0042EB2242B0
:10583000180A40EBC25028BF13F07F0F18BFB2F513
:105840007C0F38BF704708BF20F00100B2F57C0F15
:1058500038BF70470BD582F0FF0212F5803FC8BFFA
:10586000704700F1C040D8BF00F00040704700F51D
:10587000000C5FEA4C0C48BF7047B0F1C0404FF0DD
:105880007F404CBF40104008704790EA010F0CEA7F
:10589000D11348BF42F48072624538BF634504D2D9
:1058A00080EA010000F0004070474FF0807C1CEB64
:1058B000400F98BF1CEB410F4FF0030C4CF0806C75
:1058C0003FF6DCADAFF3008012F47F0F1FBF13F47F
:1058D0007F0F42F0FF02D00570470148704700007B
:1058E0000000C07F10B412F47F0F4FEA00204FEA8F
:1058F000012110D1B0FA80F400FA04F0A2EB0442C6
:1059000013F47F0F02F5803218BF41F0004100D040
:1059100010BC18BF604740F00040B1FA81F401FAB2
:1059200004F1A3EB044310BC03F58033604780F01F
:10593000004090EA010F7FF528AD81F0004100F0B2
:1059400008B8000090EA010F48BF81F000413FF520
:105950001CAD421A3EBF82F00042801A89184FEAFD
:10596000D0524FF07F4C1CEA410FA2EBD15318BF2D
:105970009CEA026F4FD04FF0004C4CEA00204CEAFA
:10598000012121FA03FCB0EB0C0C0FD412F0FE0F36
:1059900018BF5FEA4C001DD5001240EBC25038BF63
:1059A00070471CF03F0F18BF70470BE0A2F10102D7
:1059B0005FEA1C2040EBC25038BF70471CF07F0FDD
:1059C00018BF7047C3F12003994014BF401E20F058
:1059D000010070474FEA122316D0004204BF002096
:1059E00070474FEA9000B0FA80FCA2EB0C02CCF1B9
:1059F000280C60FA0CF093EA122F04BF00EBC2509F
:105A000070474FEAC37070475FEADC1008BF704709
:105A10004FEAC37070479CEA026F04D010EA5C0F33
:105A200008BF00207047BCEB410F4FEA400228BF7F
:105A30009445DFF82CC0FFF421ADAFF30080B2EB4A
:105A4000410F06D012F1807F08BF704781F00040FF
:105A5000704790EA010F48BF704702487047000046
:105A6000020000040000C07F00F0004343EAD0536E
:105A700023F48073C3F1C10323F0004117291FD819
:105A8000C3F1200310FA03F1C3F1200320F07F409B
:105A900040F4000020FA03F003F0004340EA030062
:105AA0000DD00B46590009D318BF401C06D17FEA20
:105AB000E27398BF401C38BF20F001007047704768
:105AC000182903EB912318BF6FF00041013168BF23
:105AD00003F0004009D6400203F0004000F101004D
